:020000040800F2
:100000000028002065050008010500080905000812
:10001000110500081905000821050008000000006E
:10002000000000000000000000000000290500089A
:100030003505000800000000410500084D050008D6
:10004000AD050008AD050008AD050008AD050008C8
:10005000AD050008AD050008AD050008AD050008B8
:10006000AD050008AD050008AD050008AD050008A8
:10007000AD050008AD050008AD050008AD05000898
:10008000AD050008AD050008AD050008AD05000888
:10009000AD050008AD050008AD050008AD05000878
:1000A000AD050008AD050008AD050008AD05000868
:1000B000AD050008AD05000800000000AD05000812
:1000C000AD0500080000000000000000AD050008BC
:1000D00000000000AD050008AD05000800000000AC
:1000E000AD050008AD050008AD05000800000000E2
:1000F0000000000000000000000000000000000000
:0C01000000000000000000005FF808F1A3
:10010C0010B5054C237833B9044B13B10448AFF345
:10011C0000800123237010BD0C00002000000000A3
:10012C00DC1C000808B5034B1BB103490348AFF3B3
:10013C00008008BD0000000010000020DC1C00083E
:10014C0080B500AF00F02EFA00F00BF800F0D8F8F4
:10015C0000F0B4F800F060F800F03EF900F056F949
:10016C00FCE780B594B000AF07F1280328220021EA
:10017C00184601F081FD07F1140300221A605A6041
:10018C009A60DA601A613B1D00221A605A609A600C
:10019C00DA600123BB624FF48033FB6200233B63C4
:1001AC000123BB6302237B644FF48033BB644FF4A5
:1001BC00E013FB6407F12803184600F0DBFD03464F
:1001CC00002B01D000F002F90F237B610223BB61ED
:1001DC000023FB614FF480633B6200237B6207F1D9
:1001EC0014030221184601F047F80346002B01D0F6
:1001FC0000F0ECF810237B6000233B613B1D18469C
:10020C0001F096F90346002B01D000F0DFF800BF97
:10021C005037BD4680BD000080B586B000AF07F1F9
:10022C00080300221A605A609A60DA603B4600228A
:10023C001A605A601F4B204A1A601E4B41F28732DB
:10024C005A601C4B00229A601A4B43F63F02DA604C
:10025C00184B00221A61174B00225A61154B802251
:10026C009A61144801F01AFA0346002B01D000F0F1
:10027C00ADF84FF48053BB6007F1080319460D48E5
:10028C0001F05BFA0346002B01D000F09FF800232D
:10029C003B6000237B603B461946064801F00EFC90
:1002AC000346002B01D000F091F800BF1837BD4673
:1002BC0080BD00BF28000020002C014080B500AF9D
:1002CC000D4B0E4A1A600C4B08221A710A4B022273
:1002DC009A71094B00229A72074B0022DA72064B74
:1002EC0000221A73044800F04EFC0346002B01D088
:1002FC0000F06CF800BF80BD70000020005C004076
:10030C0080B588B000AF07F1100300221A605A6064
:10031C009A60DA602A4B9B69294A43F01003936177
:10032C00274B9B6903F01003FB60FB68244B9B6914
:10033C00234A43F020039361214B9B6903F0200374
:10034C00BB60BB681E4B9B691D4A43F0080393615D
:10035C001B4B9B6903F008037B607B68184B9B6904
:10036C00174A43F004039361154B9B6903F0040394
:10037C003B603B6800224FF40051124800F0EBFB4D
:10038C004FF400533B6101237B610023BB610223CB
:10039C00FB6107F1100319460A4800F049FA4FF4C3
:1003AC0080533B6100237B610223BB6107F1100387
:1003BC001946054800F03CFA00BF2037BD4680BD09
:1003CC000010024000100140000C014080B400AF4E
:1003DC0072B600BF00BFFDE780B500AF4FF480518F
:1003EC00074800F0A1FB0346002B03D1054801F0A0
:1003FC0017FC02E0044801F013FC00BF80BD00BFF5
:10040C00000C0140002000080048000880B400AF38
:10041C0000BFBD4680BC704780B485B000AF154BA3
:10042C009B69144A43F001039361124B9B6903F0DF
:10043C000103BB60BB680F4BDB690E4A43F0805372
:10044C00D3610C4BDB6903F080537B607B680A4BF8
:10045C005B68FB60FB6823F0E063FB60FB6843F0C8
:10046C000073FB60044AFB68536000BF1437BD4641
:10047C0080BC7047001002400000014080B485B081
:10048C0000AF78607B681B68094A93420BD1094B1B
:10049C009B69084A43F400639361064B9B6903F420
:1004AC000063FB60FB6800BF1437BD4680BC70471F
:1004BC00002C01400010024080B485B000AF786081
:1004CC007B681B68094A93420BD1094BDB69084ACC
:1004DC0043F40003D361064BDB6903F40003FB60B8
:1004EC00FB6800BF1437BD4680BC7047005C004001
:1004FC000010024080B400AF00BFFDE780B400AF35
:10050C0000BFFDE780B400AF00BFFDE780B400AFD3
:10051C0000BFFDE780B400AF00BFFDE780B400AFC3
:10052C0000BFBD4680BC704780B400AF00BFBD4665
:10053C0080BC704780B400AF00BFBD4680BC704724
:10054C0080B500AF00F074F800BF80BD80B400AF80
:10055C0000BFBD4680BC7047FFF7F8FF0B480C4945
:10056C000C4A002302E0D458C4500433C4188C4203
:10057C00F9D3094A094C002301E013600432A2426A
:10058C00FBD301F081FBFFF7DBFD7047000000207F
:10059C000C000020201D00080C0000204C03002043
:1005AC00FEE7000080B500AF084B1B68074A43F01C
:1005BC0010031360032000F007F90F2000F008F877
:1005CC00FFF72AFF0023184680BD00BF0020024021
:1005DC0080B582B000AF7860124B1A68124B1B7852
:1005EC0019464FF47A73B3FBF1F3B2FBF3F31846ED
:1005FC0000F011F90346002B01D001230EE07B68BB
:10060C000F2B0AD8002279684FF0FF3000F0E7F882
:10061C00064A7B681360002300E001231846083764
:10062C00BD4680BD00000020080000200400002012
:10063C0080B400AF054B1B781A46054B1B6813445E
:10064C00034A136000BFBD4680BC70470800002001
:10065C004803002080B400AF024B1B681846BD460F
:10066C0080BC70474803002080B485B000AF786030
:10067C007B6803F00703FB600C4BDB68BB60BA685C
:10068C004FF6FF031340BB60FB681A02BB681343B1
:10069C0043F0BF6343F40033BB60044ABB68D360D0
:1006AC0000BF1437BD4680BC704700BF00ED00E0B2
:1006BC0080B400AF044BDB681B0A03F00703184639
:1006CC00BD4680BC704700BF00ED00E080B483B035
:1006DC0000AF03463960FB7197F90730002B0ADB3A
:1006EC003B68DAB20C4997F907301201D2B20B44CD
:1006FC0083F800230AE03B68DAB20849FB7903F07F
:10070C000F03043B1201D2B20B441A7600BF0C3714
:10071C00BD4680BC704700BF00E100E000ED00E08A
:10072C0080B489B000AFF860B9607A60FB6803F000
:10073C000703FB61FB69C3F10703042B28BF0423E8
:10074C00BB61FB690433062B02D9FB69033B00E058
:10075C0000237B614FF0FF32BB6902FA03F3DA43EB
:10076C00BB681A407B699A404FF0FF317B6901FAF4
:10077C0003F3D9437B680B40134318462437BD461B
:10078C0080BC704780B582B000AF78607B68013B5D
:10079C00B3F1807F01D301230FE00A4A7B68013B50
:1007AC0053600F214FF0FF30FFF790FF054B0022F5
:1007BC009A60044B07221A60002318460837BD467E
:1007CC0080BD00BF10E000E080B582B000AF786063
:1007DC007868FFF749FF00BF0837BD4680BD80B57C
:1007EC0086B000AF0346B9607A60FB7300237B616F
:1007FC00FFF75EFF78617A68B9687869FFF790FF58
:10080C00024697F90F3011461846FFF75FFF00BFFD
:10081C001837BD4680BD80B582B000AF786078686F
:10082C00FFF7B0FF034618460837BD4680BD0000F1
:10083C0080B48BB000AF7860396000237B620023FA
:10084C003B6261E101227B6A02FA03F3FB613B68C4
:10085C001B68FA691340BB61BA69FB699A4240F0A4
:10086C0050813B685B68974A93425ED0954A9342AD
:10087C0075D8954A934258D0934A93426FD8934A6D
:10088C00934252D0914A934269D8914A93424CD0A8
:10089C008F4A934263D88F4A934246D08D4A9342F3
:1008AC005DD8122B2AD8122B59D801A252F823F05A
:1008BC003709000811090008230900086509000818
:1008CC006B0900086B0900086B0900086B0900082C
:1008DC006B0900086B0900086B0900086B0900081C
:1008EC006B0900086B0900086B0900086B0900080C
:1008FC006B090008190900082D090008764A934273
:10090C0013D02CE03B68DB683B6229E03B68DB687A
:10091C0004333B6224E03B68DB6808333B621FE036
:10092C003B68DB680C333B621AE03B689B68002B2E
:10093C0002D104233B6213E03B689B68012B05D179
:10094C0008233B627B68FA691A6109E008233B6261
:10095C007B68FA695A6103E000233B6200E000BF48
:10096C00BB69FF2B01D87B6801E07B6804337B619A
:10097C00BB69FF2B02D87B6A9B0002E07B6A083BB9
:10098C009B003B617B691A680F213B6901FA03F3F9
:10099C00DB431A40396A3B6901FA03F31A437B695A
:1009AC001A603B685B6803F08053002B00F0A98051
:1009BC004A4B9B69494A43F001039361474B9B693E
:1009CC0003F00103BB60BB68454A7B6A9B0802339A
:1009DC0052F82330FB607B6A03F003039B000F2269
:1009EC0002FA03F3DB43FA681340FB607B683D4A71
:1009FC0093420DD07B683C4A934207D07B683B4ABC
:100A0C00934201D1022304E0032302E0012300E01E
:100A1C0000237A6A02F0030292009340FA681343AF
:100A2C00FB602F497B6A9B080233FA6841F823204C
:100A3C003B685B6803F48013002B06D02C4B9A6840
:100A4C002B49BB6913438B6006E0294B9A68BB6941
:100A5C00DB43274913408B603B685B6803F400134E
:100A6C00002B06D0224BDA682149BB691343CB60BB
:100A7C0006E01F4BDA68BB69DB431D491340CB60B2
:100A8C003B685B6803F40033002B06D0184B5A68A4
:100A9C001749BB6913434B6006E0154B5A68BB6999
:100AAC00DB43134913404B603B685B6803F48033B2
:100ABC00002B1FD00E4B1A680D49BB6913430B60FA
:100ACC001FE000BF000032100000311000002210A7
:100ADC000000211000001210000011100010024044
:100AEC000000014000080140000C014000100140D2
:100AFC00000401400B4B1A68BB69DB4309491340E6
:100B0C000B607B6A01337B623B681A687B6A22FA52
:100B1C0003F3002B7FF496AE00BF00BF2C37BD460D
:100B2C0080BC70470004014080B485B000AF786091
:100B3C000B467B807B689A687B881340002B02D025
:100B4C000123FB7301E00023FB73FB7B1846143776
:100B5C00BD4680BC704780B483B000AF78600B4654
:100B6C007B8013467B707B78002B03D07A887B6864
:100B7C001A6103E07B881A047B681A6100BF0C378A
:100B8C00BD4680BC704780B584B000AF78607B6890
:100B9C00002B01D10123E8E07B6893F89132DBB2A2
:100BAC00002B06D17B68002283F890227868FFF72F
:100BBC0083FC7B68032283F891227B6800225A71A4
:100BCC007B681B68184600F0DEFF7B6818687B6842
:100BDC0004330ECB00F0CAFF0346002B05D07B6814
:100BEC00022283F891220123BFE07B681B6800215D
:100BFC00184600F0E2FF0346002B05D07B6802226A
:100C0C0083F891220123B0E00023FB733EE0FA7BD2
:100C1C00796813469B001344DB000B44113301220B
:100C2C001A70FA7B796813469B001344DB000B4463
:100C3C001033FA7B1A70FA7B796813469B001344C5
:100C4C00DB000B44133300221A70FA7B79681346CD
:100C5C009B001344DB000B44203300221A60FA7B08
:100C6C00796813469B001344DB000B4424330022A9
:100C7C001A60FB7B79685A1C13469B001344DB00FB
:100C8C000B4400221A60FB7B0133FB737B681B79DE
:100C9C00FA7B9A42BBD30023FB7344E0FA7B79685E
:100CAC0013469B001344DB000B4403F25113002248
:100CBC001A70FA7B796813469B001344DB000B44D3
:100CCC0003F5A873FA7B1A70FA7B796813469B00BC
:100CDC001344DB000B4403F2531300221A70FA7B0B
:100CEC00796813469B001344DB000B4403F5B07387
:100CFC0000221A60FA7B796813469B001344DB00D0
:100D0C000B4403F5B27300221A60FA7B7968134620
:100D1C009B001344DB000B4403F5B47300221A60F0
:100D2C00FB7B0133FB737B681B79FA7B9A42B5D34F
:100D3C007B6818687B6804330ECB00F04AFF0346CF
:100D4C00002B05D07B68022283F8912201230CE052
:100D5C007B6800225A737B68012283F891227B689E
:100D6C001B68184600F052FF002318461037BD468A
:100D7C0080BD000080B586B000AF78607B68002B2A
:100D8C0001D1012372E27B681B6803F00103002B85
:100D9C0000F08780924B5B6803F00C03042B0CD0A3
:100DAC008F4B5B6803F00C03082B12D18C4B5B68E8
:100DBC0003F48033B3F5803F0BD1894B1B6803F4EC
:100DCC000033002B6CD07B685B68002B68D101234F
:100DDC004CE27B685B68B3F5803F06D1804B1B68A7
:100DEC007F4A43F4803313602EE07B685B68002BF2
:100DFC000CD17B4B1B687A4A23F480331360784BFD
:100E0C001B68774A23F4802313601DE07B685B68C2
:100E1C00B3F5A02F0CD1724B1B68714A43F480239D
:100E2C0013606F4B1B686E4A43F4803313600BE006
:100E3C006B4B1B686A4A23F480331360684B1B6846
:100E4C00674A23F4802313607B685B68002B13D004
:100E5C00FFF700FC386108E0FFF7FCFB02463B693A
:100E6C00D31A642B01D9032300E25D4B1B6803F4F6
:100E7C000033002BF0D014E0FFF7ECFB386108E0F6
:100E8C00FFF7E8FB02463B69D31A642B01D9032315
:100E9C00ECE1534B1B6803F40033002BF0D100E062
:100EAC0000BF7B681B6803F00203002B63D04C4B24
:100EBC005B6803F00C03002B0BD0494B5B6803F011
:100ECC000C03082B1CD1464B5B6803F48033002BBE
:100EDC0016D1434B1B6803F00203002B05D07B6833
:100EEC001B69012B01D00123C0E13D4B1B6823F092
:100EFC00F8027B685B69DB00394913430B603AE00D
:100F0C007B681B69002B20D0364B01221A60FFF73F
:100F1C00A1FB386108E0FFF79DFB02463B69D31A41
:100F2C00022B01D90323A1E12D4B1B6803F0020313
:100F3C00002BF0D02A4B1B6823F0F8027B685B690E
:100F4C00DB00274913430B6015E0264B00221A6087
:100F5C00FFF780FB386108E0FFF77CFB02463B693A
:100F6C00D31A022B01D9032380E11D4B1B6803F01C
:100F7C000203002BF0D17B681B6803F00803002BE5
:100F8C003AD07B689B69002B19D0174B01221A6051
:100F9C00FFF760FB386108E0FFF75CFB02463B693A
:100FAC00D31A022B01D9032360E10D4B5B6A03F0CA
:100FBC000203002BF0D0012000F09CFA1CE00A4B3D
:100FCC0000221A60FFF746FB38610FE0FFF742FB87
:100FDC0002463B69D31A022B08D9032346E100BF12
:100FEC00001002400000424280044242924B5B6A75
:100FFC0003F00203002BE9D17B681B6803F00403A8
:10100C00002B00F0A6800023FB758B4BDB6903F0F3
:10101C008053002B0DD1884BDB69874A43F08053FA
:10102C00D361854BDB6903F08053BB60BB68012344
:10103C00FB75824B1B6803F48073002B18D17F4B1C
:10104C001B687E4A43F480731360FFF703FB38611F
:10105C0008E0FFF7FFFA02463B69D31A642B01D96B
:10106C00032303E1754B1B6803F48073002BF0D052
:10107C007B68DB68012B06D16F4B1B6A6E4A43F011
:10108C00010313622DE07B68DB68002B0CD16A4BEB
:10109C001B6A694A23F001031362674B1B6A664A99
:1010AC0023F0040313621CE07B68DB68052B0CD176
:1010BC00614B1B6A604A43F0040313625E4B1B6A6C
:1010CC005D4A43F0010313620BE05B4B1B6A5A4A07
:1010DC0023F001031362584B1B6A574A23F0040395
:1010EC0013627B68DB68002B15D0FFF7B3FA38610D
:1010FC000AE0FFF7AFFA02463B69D31A41F2883295
:10110C00934201D90323B1E04B4B1B6A03F002035A
:10111C00002BEED014E0FFF79DFA38610AE0FFF7E0
:10112C0099FA02463B69D31A41F28832934201D9AB
:10113C0003239BE0404B1B6A03F00203002BEED110
:10114C00FB7D012B05D13C4BDB693B4A23F08053E3
:10115C00D3617B68DB69002B00F08780364B5B68C2
:10116C0003F00C03082B61D07B68DB69022B46D1A2
:10117C00334B00221A60FFF76DFA386108E0FFF775
:10118C0069FA02463B69D31A022B01D903236DE09D
:10119C00294B1B6803F00073002BF0D17B681B6A92
:1011AC00B3F5803F08D1244B5B6823F400327B6895
:1011BC009B68214913434B601F4B5B6823F47412EB
:1011CC007B68196A7B685B6A0B431B4913434B6052
:1011DC001B4B01221A60FFF73DFA386108E0FFF75C
:1011EC0039FA02463B69D31A022B01D903233DE09D
:1011FC00114B1B6803F00073002BF0D035E0104B43
:10120C0000221A60FFF726FA386108E0FFF722FA8D
:10121C0002463B69D31A022B01D9032326E0064B65
:10122C001B6803F00073002BF0D11EE07B68DB69B8
:10123C00012B07D1012319E000100240007000407F
:10124C00600042420B4B5B68FB60FB6803F480322E
:10125C007B681B6A9A4206D1FB6803F470127B68A8
:10126C005B6A9A4201D0012300E00023184618372C
:10127C00BD4680BD0010024080B584B000AF7860E0
:10128C0039607B68002B01D10123D0E06A4B1B68CD
:10129C0003F007033A689A4210D9674B1B6823F096
:1012AC00070265493B6813430B60634B1B6803F0F3
:1012BC0007033A689A4201D00123B8E07B681B68A7
:1012CC0003F00203002B20D07B681B6803F004039F
:1012DC00002B05D0594B5B68584A43F4E0635360CC
:1012EC007B681B6803F00803002B05D0534B5B682D
:1012FC00524A43F460535360504B5B6823F0F00246
:10130C007B689B684D4913434B607B681B6803F0FB
:10131C000103002B40D07B685B68012B07D1474B46
:10132C001B6803F40033002B15D101237FE07B688D
:10133C005B68022B07D1414B1B6803F00073002B39
:10134C0009D1012373E03D4B1B6803F00203002B12
:10135C0001D101236BE0394B5B6823F003027B68FE
:10136C005B68364913434B60FFF774F9F8600AE089
:10137C00FFF770F90246FB68D31A41F288329342A8
:10138C0001D9032353E02D4B5B6803F00C027B68FF
:10139C005B689B009A42EBD1274B1B6803F0070359
:1013AC003A689A4210D2244B1B6823F00702224958
:1013BC003B6813430B60204B1B6803F007033A6830
:1013CC009A4201D0012332E07B681B6803F00403CE
:1013DC00002B08D0194B5B6823F4E0627B68DB6858
:1013EC00164913434B607B681B6803F00803002B02
:1013FC0009D0124B5B6823F460527B681B69DB00DD
:10140C000E4913434B6000F021F802460B4B5B680E
:10141C001B0903F00F030A49CB5C22FA03F3094AB8
:10142C001360094B1B681846FFF7D2F800231846C7
:10143C001037BD4680BD00BF0020024000100240A6
:10144C00F41C0008000000200400002080B487B0C9
:10145C0000AF0023FB600023BB6000237B610023F3
:10146C007B6000233B611E4B5B68FB60FB6803F0F9
:10147C000C03042B02D0082B03D027E0194B3B6143
:10148C0027E0FB689B0C03F00F03174AD35C7B60CF
:10149C00FB6803F48033002B10D0114B5B685B0CA2
:1014AC0003F00103114AD35CBB607B680D4A03FB5C
:1014BC0002F2BB68B2FBF3F37B6104E07B680C4A7D
:1014CC0002FB03F37B617B693B6102E0054B3B61F3
:1014DC0000BF3B6918461C37BD4680BC704700BF37
:1014EC000010024000127A00041D0008141D0008B0
:1014FC0000093D0080B485B000AF78600A4B1B68D2
:10150C000A4AA2FB03235B0A7A6802FB03F3FB6023
:10151C0000BFFB685A1EFA60002BF9D100BF00BF58
:10152C001437BD4680BC704700000020D34D6210BC
:10153C0080B586B000AF786000233B610023FB6070
:10154C007B681B6803F00103002B7DD00023FB7527
:10155C004F4BDB6903F08053002B0DD14C4BDB69F7
:10156C004B4A43F08053D361494BDB6903F0805302
:10157C00BB60BB680123FB75464B1B6803F480738F
:10158C00002B18D1434B1B68424A43F48073136001
:10159C00FFF760F8386108E0FFF75CF802463B693A
:1015AC00D31A642B01D903236DE03A4B1B6803F467
:1015BC008073002BF0D0364B1B6A03F44073FB6036
:1015CC00FB68002B2ED07B685B6803F44073FA68D1
:1015DC009A4227D02E4B1B6A23F44073FB602E4B90
:1015EC0001221A602C4B00221A60294AFB681362F4
:1015FC00FB6803F00103002B14D0FFF72BF83861C4
:10160C000AE0FFF727F802463B69D31A41F2883209
:10161C00934201D9032336E01D4B1B6A03F00203EE
:10162C00002BEED01A4B1B6A23F440727B685B686C
:10163C00174913430B62FB7D012B05D1144BDB695E
:10164C00134A23F08053D3617B681B6803F00203B9
:10165C00002B08D00E4B5B6823F440427B689B68E0
:10166C000B4913434B607B681B6803F01003002B82
:10167C0008D0074B5B6823F480027B68DB68044965
:10168C0013434B60002318461837BD4680BD00BF7E
:10169C0000100240007000404004424280B582B00D
:1016AC0000AF78607B68002B01D1012341E07B689F
:1016BC0093F83D30DBB2002B06D17B68002283F817
:1016CC003C207868FEF7DAFE7B68022283F83D2026
:1016DC007B681A687B6804331946104600F0F4F8EE
:1016EC007B68012283F846207B68012283F83E2028
:1016FC007B68012283F83F207B68012283F840201D
:10170C007B68012283F841207B68012283F8422008
:10171C007B68012283F843207B68012283F84420F4
:10172C007B68012283F845207B68012283F83D20E9
:10173C00002318460837BD4680BD80B584B000AF85
:10174C00786039600023FB737B6893F83C30012B85
:10175C0001D10223B4E07B68012283F83C207B6832
:10176C00022283F83D207B681B689B68BB60BB68CA
:10177C0023F07703BB60BB6823F47F43BB607B68BB
:10178C001B68BA689A603B681B68B3F5005F3ED073
:10179C00B3F5005F00F28780B3F5805F00F08680C0
:1017AC00B3F5805F7FD8702B1AD0702B7BD8602B51
:1017BC0050D0602B77D8502B3CD0502B73D8402B6B
:1017CC0058D0402B6FD8302B64D0302B6BD8202BBB
:1017DC0060D0202B67D8002B5CD0102B5AD062E045
:1017EC007B6818683B6899683B685A683B68DB689B
:1017FC0000F045F97B681B689B68BB60BB6843F0D5
:10180C007703BB607B681B68BA689A604FE07B68A3
:10181C0018683B6899683B685A683B68DB6800F05D
:10182C002EF97B681B689A687B681B6842F48042BF
:10183C009A603CE07B6818683B6859683B68DB68D9
:10184C001A4600F0A5F87B681B685021184600F07A
:10185C00FCF82CE07B6818683B6859683B68DB68CF
:10186C001A4600F0C3F87B681B686021184600F02C
:10187C00ECF81CE07B6818683B6859683B68DB68CF
:10188C001A4600F085F87B681B684021184600F06A
:10189C00DCF80CE07B681A683B681B68194610463C
:1018AC0000F0D3F803E00123FB7300E000BF7B687A
:1018BC00012283F83D207B68002283F83C20FB7BCF
:1018CC0018461037BD4680BD80B485B000AF786037
:1018DC0039607B681B68FB607B682B4A934207D09E
:1018EC007B68B3F1804F03D07B68284A934208D1C0
:1018FC00FB6823F07003FB603B685B68FA6813437A
:10190C00FB607B68204A934207D07B68B3F1804F21
:10191C0003D07B681D4A934208D1FB6823F44073C3
:10192C00FB603B68DB68FA681343FB60FB6823F0E1
:10193C0080023B685B691343FB607B68FA681A6042
:10194C003B689A687B68DA623B681A687B689A62C3
:10195C007B680D4A934203D13B681A697B681A6312
:10196C007B6801225A617B681B6903F00103002B21
:10197C0005D07B681B6923F001027B681A6100BFEC
:10198C001437BD4680BC7047002C01400004004059
:10199C0080B487B000AFF860B9607A60FB681B6AEE
:1019AC007B61FB681B6A23F00102FB681A62FB680F
:1019BC009B693B613B6923F0F0033B617B681B0136
:1019CC003A6913433B617B6923F00A037B617A69B3
:1019DC00BB6813437B61FB683A699A61FB687A695F
:1019EC001A6200BF1C37BD4680BC704780B487B0FC
:1019FC0000AFF860B9607A60FB681B6A7B61FB68BA
:101A0C001B6A23F01002FB681A62FB689B693B613E
:101A1C003B6923F470433B617B681B033A691343B6
:101A2C003B617B6923F0A0037B61BB681B017A6976
:101A3C0013437B61FB683A699A61FB687A691A62A5
:101A4C0000BF1C37BD4680BC704780B485B000AF6A
:101A5C00786039607B689B68FB60FB6823F07003DF
:101A6C00FB603A68FB68134343F00703FB607B6839
:101A7C00FA689A6000BF1437BD4680BC704780B4CA
:101A8C0087B000AFF860B9607A603B60FB689B6818
:101A9C007B617B6923F47F437B613B681A027B6823
:101AAC001A43BB6813437A6913437B61FB687A69F9
:101ABC009A6000BF1C37BD4680BC704780B485B0AF
:101ACC0000AF786039607B6893F83C30012B01D112
:101ADC00022341E07B68012283F83C207B680222D0
:101AEC0083F83D207B681B685B68FB607B681B6828
:101AFC009B68BB60FB6823F07003FB603B681B6852
:101B0C00FA681343FB607B681B68FA685A607B6851
:101B1C001B68144A934209D07B681B68B3F1804F51
:101B2C0004D07B681B68104A93420CD1BB6823F02D
:101B3C008003BB603B685B68BA681343BB607B681F
:101B4C001B68BA689A607B68012283F83D207B6829
:101B5C00002283F83C20002318461437BD4680BC75
:101B6C00704700BF002C01400004004080B485B0D9
:101B7C0000AFF860384680E80E0000231846143792
:101B8C00BD4680BC704780B485B000AF78604FF420
:101B9C003F43FB607B68B3F840309AB2FB689BB262
:101BAC00DB439BB213409AB27B68A3F8402000231E
:101BBC0018461437BD4680BC704780B483B000AF64
:101BCC0078600B46FB70002318460C37BD4680BC72
:101BDC00704780B485B000AFF860384680E80E00DE
:101BEC00FB680122A3F84020FB680022A3F84020E8
:101BFC00FB680022A3F84420FB680022A3F85020C5
:101C0C00002318461437BD4680BC704780B483B09F
:101C1C0000AF7860002318460C37BD4680BC704777
:101C2C0080B586B000AF786072B600BF104B002252
:101C3C001A600F4B00225A600D4B00229A600D4B1C
:101C4C005B6A0C4A23F4E02353627B681B68FB60DD
:101C5C00FB6883F3088800BF7B6804331B687B61D7
:101C6C007B693B613B69984700BF1837BD4680BD17
:101C7C0010E000E000ED00E003460244934200D186
:101C8C00704703F8011BF9E770B500260C4D0D4C9D
:101C9C00641BA410A64209D100F01AF800260A4DC4
:101CAC000A4C641BA410A64205D170BD55F8043B28
:101CBC0098470136EEE755F8043B98470136F2E7B2
:101CCC00181D0008181D0008181D00081C1D000810
:101CDC00F8B500BFF8BC08BC9E467047F8B500BF0D
:081CEC00F8BC08BC9E467047DD
:101CF40000000000000000000102030406070809B8
:101D040002030405060708090A0B0C0D0E0F101038
:041D140001020000C8
:041D1800310100088D
:041D1C000D010008AD
:0C1D200000127A0010000000010000001A
:040000050800056585
:00000001FF
